:1000000000020020D11300003D1400004514000040
:100010004D1400004D1400004D14000000000000BD
:100020000000000000000000000000004D1400006F
:100030004D140000000000004D1400004D1400009D
:100040004D1400004D1400004D1400004D1400002C
:100050004D1400004D1400004D1400004D1400001C
:100060004D1400004D1400004D1400004D1400000C
:100070004D1400004D1400004D1400004D140000FC
:100080004D1400004D1400004D1400004D140000EC
:100090004D1400004D1400004D1400004D140000DC
:1000A0004D1400004D1400004D1400004D140000CC
:1000B0004D1400004D1400004D1400004D140000BC
:1000C0004D1400004D1400004D1400004D140000AC
:1000D0004D1400004D1400004D1400004D1400009C
:1000E0004D1400004D1400004D1400004D1400008C
:1000F0004D1400004D1400004D1400004D1400007C
:100100004D1400004D1400004D1400004D1400006B
:100110004D1400004D1400004D1400004D1400005B
:100120004D1400004D1400004D1400004D1400004B
:100130004D1400004D1400004D1400004D1400003B
:1001400000000000000000000000000000000000AF
:100150004D1400004D1400004D1400004D1400001B
:10016000000000000000000000000000000000008F
:10017000000000000000000000000000000000007F
:10018000000000000000000000000000000000006F
:10019000000000000000000000000000000000005F
:1001A000000000000000000000000000000000004F
:1001B0004D1400004D1400004D1400004D140000BB
:1001C0004D1400004D1400004D1400004D140000AB
:1001D0004D1400004D1400004D1400004D1400009B
:1001E0004D1400004D1400004D1400004D1400008B
:1001F0004D1400004D1400004D1400004D1400007B
:100200004D1400004D1400004D14000000000000CB
:100210004D1400004D1400004D1400004D1400005A
:100220004D1400004D1400004D1400004D1400004A
:100230004D1400004D1400004D1400004D1400003A
:100240004D1400004D1400004D1400004D1400002A
:100250004D1400004D1400004D1400004D1400001A
:100260004D1400004D1400004D14000080B500AF87
:100270000B4A0B4B1B6843F002031360BF21094874
:1002800001F069F9084A084B1B6823F0FF0313606B
:10029000064A064B1B6843F0FF03136000BF80BD96
:1002A00008E10F4000500040205400401C55004021
:1002B00080B500AF104801F05FF9104A0F4B1B6882
:1002C00043F0080313600D4A0C4B1B6843F02003F6
:1002D00013600A4B1B680A4A13600A4BFF221A601C
:1002E000094BFF221A60094BFF221A60084BFF22BC
:1002F0001A6000BF80BD00BF4005C00308E10F4089
:1003000000020020007400401C75004000540240B0
:100310001C55024080B582B000AF0346FB71174AFE
:10032000164B1B6843F0020313604FF4C87001F0D2
:1003300020F9134AFB791B09DBB213600F4A0F4BFC
:100340001B6843F0040313600C4A0C4B1B6823F03A
:10035000040313600A4AFB791360084A074B1B68C1
:1003600043F004031360054A044B1B6823F00403A5
:10037000136000BF0837BD4680BD00BFFC5302407C
:10038000FC73004080B582B000AF0346FB71174A92
:10039000164B1B6823F0020313604FF4C87001F082
:1003A000E8F8134AFB791B09DBB213600F4A0F4BC5
:1003B0001B6843F0040313600C4A0C4B1B6823F0CA
:1003C000040313600A4AFB791360084A074B1B6851
:1003D00043F004031360054A044B1B6823F0040335
:1003E000136000BF0837BD4680BD00BFFC5302400C
:1003F000FC73004080B582B000AF0346FB710E4A2B
:100400000D4B1B6823F00203136043F6982001F0A4
:10041000B0F80A4AFB791360074A074B1B6843F0A0
:1004200004031360044A044B1B6823F004031360A5
:1004300000BF0837BD4680BDFC530240FC7300403E
:1004400080B500AF0120FFF79DFF47F2305001F06B
:1004500090F800BF80BD00BF80B500AF3020FFF72F
:10046000C9FF3020FFF7C6FF3020FFF7C3FF202071
:10047000FFF7C0FF2820FFF785FF0C20FFF782FF62
:10048000FFF7DEFF0620FFF77DFF00BF80BD00BF46
:1004900080B582B000AF786008E07B685A1C7A6053
:1004A00093F90030DBB21846FFF734FF7B6893F90D
:1004B0000030002BF1D100BF0837BD4680BD00BF22
:1004C00080B58AB000AF786097ED017AF3EE046AE8
:1004D000C7EE267AFDEEE77A17EE903A7B627A6AEB
:1004E00013469B0013449B0007EE903AF8EEE77A20
:1004F00097ED017A77EE677AC7ED087AD7ED087A3B
:10050000FDEEE77A17EE903AFB61FB6907EE903A51
:10051000F8EEE77A97ED087A77EE677A9FED287A1A
:1005200067EE877AFDEEE77A17EE903ABB6107F146
:1005300014030A221946F86901F032FD07F110038D
:100540000A221946B86901F02BFD07F10C030A22B3
:100550001946786A01F024FD7B6A002B01D13B6AC1
:1005600029E0FFF779FF8020FFF70CFF1548FFF720
:100570008FFF07F114031846FFF78AFF1248FFF7B1
:1005800087FF07F110031846FFF782FFC020FFF72F
:10059000F9FE07F10C031846FFF77AFF0B48FFF747
:1005A00077FF0B4800F0E5FF0A4A0A4B1B6823F06F
:1005B000020313603B6A18462837BD4680BD00BF62
:1005C0000000C8422820000034200000382000002D
:1005D0000024F400FC53024080B58AB000AF78607C
:1005E00097ED017AF2EE046AC7EE267AFDEEE77A1D
:1005F00017EE903A7B627A6A13469B0013445B00C5
:1006000007EE903AF8EEE77A97ED017A77EE677A9F
:10061000C7ED087AD7ED087AFDEEE77A17EE903A43
:10062000FB61FB6907EE903AF8EEE77A97ED087AFE
:1006300077EE677A9FED287A67EE877AFDEEE77AA4
:1006400017EE903ABB6107F114030A221946F869C4
:1006500001F0A6FC07F110030A221946B86901F05F
:100660009FFC07F10C030A221946786A01F098FCF6
:100670007B6A002B01D13B6A29E0FFF7EDFE802069
:10068000FFF780FE1548FFF703FF07F11403184634
:10069000FFF7FEFE1248FFF7FBFE07F110031846B6
:1006A000FFF7F6FEC020FFF76DFE07F10C031846BA
:1006B000FFF7EEFE0B48FFF7EBFE0B4800F059FF8B
:1006C0000A4A0A4B1B6823F0020313603B6A184670
:1006D0002837BD4680BD00BF0000C842282000006A
:1006E00034200000442000000024F400FC530240A9
:1006F00080B58AB000AF786097ED017AF1EE046AB8
:10070000C7EE267AFDEEE77A17EE903A7B627A6AB8
:1007100013469B00134407EE903AF8EEE77A97ED04
:10072000017A77EE677AC7ED087AD7ED087AFDEEA1
:10073000E77A17EE903AFB61FB6907EE903AF8EE24
:10074000E77A97ED087A77EE677A9FED287A67EE79
:10075000877AFDEEE77A17EE903ABB6107F1140352
:100760000A221946F86901F01BFC07F110030A225E
:100770001946B86901F014FC07F10C030A22194666
:10078000786A01F00DFC7B6A002B01D13B6A29E0FD
:10079000FFF762FE8020FFF7F5FD1548FFF778FEB2
:1007A00007F114031846FFF773FE1248FFF770FEB7
:1007B00007F110031846FFF76BFEC020FFF7E2FDBC
:1007C00007F10C031846FFF763FE0B48FFF760FEC6
:1007D0000A4800F0CEFE0A4A094B1B6823F00203C8
:1007E00013603B6A18462837BD4680BD0000C842EA
:1007F00028200000342000004C2000000024F400D9
:10080000FC53024080B58AB000AF7860D7ED017A22
:10081000FDEEE77A17EE903A7B627B6A07EE903A3C
:10082000F8EEE77A97ED017A77EE677AC7ED087A06
:10083000D7ED087AFDEEE77A17EE903AFB61FB6997
:1008400007EE903AF8EEE77A97ED087A77EE677A56
:100850009FED287A67EE877AFDEEE77A17EE903AF9
:10086000BB6107F114030A221946F86901F098FBED
:1008700007F110030A221946B86901F091FB07F14C
:100880000C030A221946786A01F08AFB7B6A002B66
:1008900001D13B6A29E0FFF7DFFD8020FFF772FD01
:1008A0001548FFF7F5FD07F114031846FFF7F0FDB3
:1008B0001248FFF7EDFD07F110031846FFF7E8FDBA
:1008C000C020FFF75FFD07F10C031846FFF7E0FDBE
:1008D0000B48FFF7DDFD0B4800F04BFE0A4A0A4BC0
:1008E0001B6823F0020313603B6A18462837BD4695
:1008F00080BD00BF0000C842282000003420000056
:10090000542000000024F400FC530240B0B58AB02B
:1009100000AF7860786801F04DF84FF00002434B6B
:1009200001F0C6F903460C461846214601F0A8FA24
:1009300003467B62786801F03DF804460D46786A0C
:1009400001F026F84FF00002384B01F087F802461C
:100950000B462046294600F0CDFE03460C461846BD
:10096000214601F0B5FA03463B62D7ED087AFDEE69
:10097000E77A17EE903AFB61FB6907EE903AF8EEE2
:10098000E77A97ED087A77EE677A9FED297A67EE36
:10099000877AFDEEE77A17EE903ABB6107F1140310
:1009A0000A221946F86901F0FBFA07F110030A223E
:1009B0001946B86901F0F4FA07F10C030A22194646
:1009C000786A01F0EDFA7B6A002B01D13B6A29E0DD
:1009D000FFF742FD8020FFF7D5FC1648FFF758FDD2
:1009E00007F114031846FFF753FD1348FFF750FDB6
:1009F00007F110031846FFF74BFDC020FFF7C2FCBC
:100A000007F10C031846FFF743FD0C48FFF740FDC4
:100A10000B4800F0AEFD0B4A0A4B1B6823F00203A3
:100A200013603B6A18462837BD46B0BD0000E03F62
:100A30000000C84228200000342000005C20000094
:100A40000024F400FC530240B0B58AB000AF7860D7
:100A5000786800F0AFFF4FF00002434B01F028F937
:100A600003460C461846214601F00AFA03467B620B
:100A7000786800F09FFF04460D46786A00F088FF12
:100A80004FF00002384B00F0E9FF02460B462046CB
:100A9000294600F02FFE03460C461846214601F079
:100AA00017FA03463B62D7ED087AFDEEE77A17EEB8
:100AB000903AFB61FB6907EE903AF8EEE77A97ED22
:100AC000087A77EE677A9FED297A67EE877AFDEEEE
:100AD000E77A17EE903ABB6107F114030A22194630
:100AE000F86901F05DFA07F110030A221946B869A6
:100AF00001F056FA07F10C030A221946786A01F050
:100B00004FFA7B6A002B01D13B6A29E0FFF7A4FC76
:100B10008020FFF737FC1648FFF7BAFC07F11403F3
:100B20001846FFF7B5FC1348FFF7B2FC07F11003B6
:100B30001846FFF7ADFCC020FFF724FC07F10C03BB
:100B40001846FFF7A5FC0C48FFF7A2FC0B4800F085
:100B500010FD0B4A0A4B1B6823F0020313603B6A2B
:100B600018462837BD46B0BD0000D03F0000C8423F
:100B70002820000034200000682000000024F40039
:100B8000FC53024000000000B0B58AB000AF7860AE
:100B9000786800F00FFF4AA3D3E9002301F088F83A
:100BA00003460C461846214601F06AF903467B626B
:100BB000786800F0FFFE04460D46786A00F0E8FE13
:100BC0003FA3D3E9002300F049FF02460B4620462D
:100BD000294600F08FFD03460C461846214601F0D9
:100BE00077F903463B62D7ED087AFDEEE77A17EE18
:100BF000903AFB61FB6907EE903AF8EEE77A97EDE1
:100C0000087A77EE677A9FED287A67EE877AFDEEAD
:100C1000E77A17EE903ABB6107F114030A221946EE
:100C2000F86901F0BDF907F110030A221946B86905
:100C300001F0B6F907F10C030A221946786A01F0AF
:100C4000AFF97B6A002B01D13B6A29E0FFF704FC76
:100C50008020FFF797FB1548FFF71AFC07F11403F4
:100C60001846FFF715FC1248FFF712FC07F11003B6
:100C70001846FFF70DFCC020FFF784FB07F10C03BB
:100C80001846FFF705FC0B48FFF702FC0A4800F086
:100C900070FC0A4A094B1B6823F0020313603B6A8D
:100CA00018462837BD46B0BD0000C84228200000C5
:100CB00034200000742000000024F400FC530240A3
:100CC0009A9999999999B93FB0B58AB000AF78606F
:100CD000786800F06FFE4AA3D3E9002300F0E8FF34
:100CE00003460C461846214601F0CAF803467B62CB
:100CF000786800F05FFE04460D46786A00F048FE12
:100D00003FA3D3E9002300F0A9FE02460B4620468C
:100D1000294600F0EFFC03460C461846214601F038
:100D2000D7F803463B62D7ED087AFDEEE77A17EE77
:100D3000903AFB61FB6907EE903AF8EEE77A97ED9F
:100D4000087A77EE677A9FED287A67EE877AFDEE6C
:100D5000E77A17EE903ABB6107F114030A221946AD
:100D6000F86901F01DF907F110030A221946B86964
:100D700001F016F907F10C030A221946786A01F00E
:100D80000FF97B6A002B01D13B6A29E0FFF764FB76
:100D90008020FFF7F7FA1548FFF77AFB07F11403F5
:100DA0001846FFF775FB1248FFF772FB07F11003B7
:100DB0001846FFF76DFBC020FFF7E4FA07F10C03BC
:100DC0001846FFF765FB0B48FFF762FB0A4800F087
:100DD000D0FB0A4A094B1B6823F0020313603B6AED
:100DE00018462837BD46B0BD0000C8422820000084
:100DF000342000007C2000000024F400FC5302405A
:100E00009A9999999999A93FB0B58AB000AF78603D
:100E1000786800F0CFFD4AA3D3E9002300F048FF33
:100E200003460C461846214601F02AF803467B6229
:100E3000786800F0BFFD04460D46786A00F0A8FD12
:100E40003FA3D3E9002300F009FE02460B462046EB
:100E5000294600F04FFC03460C461846214601F097
:100E600037F803463B62D7ED087AFDEEE77A17EED6
:100E7000903AFB61FB6907EE903AF8EEE77A97ED5E
:100E8000087A77EE677A9FED287A67EE877AFDEE2B
:100E9000E77A17EE903ABB6107F114030A2219466C
:100EA000F86901F07DF807F110030A221946B869C4
:100EB00001F076F807F10C030A221946786A01F06E
:100EC0006FF87B6A002B28D0FFF7C6FA8020FFF767
:100ED00059FA1648FFF7DCFA07F114031846FFF732
:100EE000D7FA1348FFF7D4FA07F110031846FFF7B3
:100EF000CFFAC020FFF746FA07F10C031846FFF7B8
:100F0000C7FA0C48FFF7C4FA0B4800F032FB0B4A53
:100F10000A4B1B6823F00203136000BF2837BD464D
:100F2000B0BD00BFAFF300800000C84284200000C5
:100F300034200000902000000024F400FC53024004
:100F40007B14AE47E17A843FB0B59AB000AFFFF7AB
:100F5000AFF9FFF775FAFFF789F94FF000034FF08B
:100F60000004C7E918340023FB650023BB65002398
:100F70007B6500233B650121994800F0E9FAF8649C
:100F80000221974800F0E4FAB8640421944800F084
:100F9000DFFA78640821924800F0DAFA3864102108
:100FA0008F4800F0D5FAF86320218D4800F0D0FA80
:100FB000B86380218A4800F0CBFA7863FB6C012B80
:100FC0003CD1884800F0D5FAFB6D0133FB65FB6D21
:100FD000092B01DD0023FB65FA6D13469B001344CA
:100FE0005B001A46BB6D1344184600F0D1FC044662
:100FF0000D46786D00F0CCFC75A3D3E9002300F01A
:101000002DFD02460B462046294600F075FB03469F
:101010000C4625461C46386D00F0BAFC6EA3D3E999
:10102000002300F01BFD02460B462046294600F037
:1010300063FB03460C46C7E9183476E1BB6C022B10
:101040003CD1684800F095FABB6D0133BB65BB6DC0
:10105000092B01DD0023BB65FA6D13469B00134489
:101060005B001A46BB6D1344184600F091FC044621
:101070000D46786D00F08CFC55A3D3E9002300F0F9
:10108000EDFC02460B462046294600F035FB0346A0
:101090000C4625461C46386D00F07AFC4EA3D3E979
:1010A000002300F0DBFC02460B462046294600F0F8
:1010B00023FB03460C46C7E9183436E17B6C042B4E
:1010C00006D12E2387F83330464800F052FA2CE13F
:1010D0003B6C082B3CD1434800F04BFA7B6D01334D
:1010E0007B657B6D092B01DD00237B65FA6D134663
:1010F0009B0013445B001A46BB6D1344184600F076
:1011000047FC04460D46786D00F042FC30A3D3E95D
:10111000002300F0A3FC02460B462046294600F0BF
:10112000EBFA03460C4625461C46386D00F030FCB1
:1011300029A3D3E9002300F091FC02460B46204688
:10114000294600F0D9FA03460C46C7E91834ECE00A
:10115000FB6B102B48D1234800F00BFA3B6D013399
:101160003B653B6D092B01DD00233B65FA6D1346A2
:101170009B0013445B001A46BB6D1344184600F0F5
:1011800007FC04460D46786D00F002FC10A3D3E97D
:10119000002300F063FC02460B462046294600F07F
:1011A000ABFA03460C4625461C46386D00F0F0FBB2
:1011B00009A3D3E9002300F051FC02460B46204668
:1011C000294600F099FA03460C46C7E91834ACE00A
:1011D0009A9999999999B93F7B14AE47E17A843FDE
:1011E0000050004055615100BB6B202B5ED174480C
:1011F00000F0BFF9FA6D13469B0013445B001A46DA
:10120000BB6D1344184600F0C3FB04460D46786DD1
:1012100000F0BEFB66A3D3E9002300F01FFC0246EA
:101220000B462046294600F067FA03460C46254641
:101230001C46386D00F0ACFB5FA3D3E9002300F03F
:101240000DFC02460B462046294600F055FA03469F
:101250000C46C7E91834D7E9180100F039FE0346F7
:101260001846FFF72DF9F862F86AFFF7B5F9B8628A
:10127000B86AFFF73DFA7862786AFFF7C3FA386216
:10128000386AFFF743FBF861F869FFF7DDFBB861E7
:10129000B869FFF779FC78617869FFF715FD386167
:1012A0003869FFF7B1FDFFF7CBF83EE07B6B802B91
:1012B0003BD1434800F05DF90023FB650023BB658B
:1012C00000237B6500233B65FA6D13469B001344A6
:1012D0005B001A46BB6D1344184600F059FB0446E8
:1012E0000D46786D00F054FB31A3D3E9002300F0E4
:1012F000B5FB02460B462046294600F0FDF90346A1
:101300000C4625461C46386D00F042FB2AA3D3E963
:10131000002300F0A3FB02460B462046294600F0BE
:10132000EBF903460C46C7E91834D7E9180100F079
:10133000A7FD0346FB60F86800F02AFB03460C4655
:101340001A462346D7E9180100F0D4F903460C46A3
:10135000184621464FF000021A4B00F07FFB03466F
:101360000C461846214600F08BFD0346BB603B1D32
:101370000A221946F86800F013FE3B460A22194675
:10138000B86800F00DFEFFF767F88020FEF7FAFF5F
:101390000D48FFF77DF83B1D1846FFF779F80B481D
:1013A000FFF776F83B461846FFF772F8E3E500BF13
:1013B0009A9999999999B93F7B14AE47E17A843FFC
:1013C0005561510000005940842000003420000085
:1013D00080B582B000AF134B7B60134B3B6007E0DE
:1013E0003B681A1D3A607A68111D796012681A60AC
:1013F0003B680E4A9342F3D30E480F494FF0000268
:101400008842B8BF40F8042BFADB094A084B1B6836
:1014100043F470031360FFF797FD00BF0837BD4624
:1014200080BD00BFC420000000000020000000209C
:1014300088ED00E0000000200402002080B400AF2E
:10144000FEE700BF80B400AFFEE700BF80B400AF8E
:10145000FEE700BFD0F8003412F0010F10B500F520
:10146000806414BF0B438B43236012F0020FD0F84B
:10147000202400F5846314BF114322EA010119609E
:1014800010BD30B5D0F8004512F0010F00F5A06591
:1014900014BF0C438C432C60D0F8045500F5A064B5
:1014A00012F0020F04F1040414BF0D438D432560B4
:1014B000D0F8084512F0040F00F5A16514BF0C43E5
:1014C0008C432C6012F0080FD0F8182500F5A364A7
:1014D00014BF0A438A432260D0F80C4500F5A0628D
:1014E00013F0010F02F10C0214BF0C438C43146083
:1014F000D0F8102513F0020F00F5A26414BF0A43C0
:101500008A432260D0F8144500F5A26213F0040F5C
:1015100002F1040214BF0C438C431460D0F81C4544
:1015200000F5A26213F0080F02F10C0214BF0C4385
:101530008C43146000F5A56223B9D0F8283543EA3E
:10154000010103E0D0F8283523EA0101116030BD24
:1015500050F82100704770B5002205460C46FFF791
:1015600079FF2846214601220823BDE87040FFF795
:1015700088BF0138FDD17047534B1A6812F0E04F15
:101580002DE9F041044606D01A68504B02EA0303E5
:10159000B3F1805F02D1002CC0F294804C494D4AD7
:1015A0000B68166843F4006323F4800546F4006674
:1015B00013F0020F0D60166002D014F0020F05D078
:1015C00015F0010F1AD014F0010F17D164F00303C6
:1015D0001D403F4B002E1D6005DA06F07003302BD6
:1015E00005D0702B02E005F03003302B02D14FF410
:1015F000805001E04FF40020FFF7BBFF04F4FE63CE
:1016000025F4FE6545EA0308334D324F26F00046C7
:1016100004EA050526F0700645EA060604F008050A
:1016200046EAC5052A4E1020C6F800803D60FFF747
:10163000A0FF28F4405804F40052284904F4405311
:1016400025F4005548EA030340201543244A086066
:1016500052BF33603D60336023F0F86304EA020256
:1016600023F0030358BF3D60134304F0FC5125F001
:10167000FC5214F0804F42EA010208D0194922F4CA
:10168000800204EA010143F480030A4301E022F0EE
:10169000804214F4006F0CD14FF4004112480068EE
:1016A00010F0400F01D10139F8D123F4006322F486
:1016B000006207490B60074B10201A60BDE8F0413B
:1016C000FFF757BFBDE8F08100E00F400000FF705A
:1016D00060E00F4070E00F403000008058E00F40A5
:1016E0000300C0070000404050E00F4081F000417F
:1016F00002E000BF83F0004330B54FEA41044FEAF7
:10170000430594EA050F08BF90EA020F1FBF54EA91
:10171000000C55EA020C7FEA645C7FEA655C00F02D
:10172000E2804FEA5454D4EB5555B8BF6D420CDDFE
:101730002C4480EA020281EA030382EA000083EA81
:10174000010180EA020281EA0303362D88BF30BD21
:1017500011F0004F4FEA01314FF4801C4CEA113177
:1017600002D0404261EB410113F0004F4FEA0333D6
:101770004CEA133302D0524263EB430394EA050F61
:1017800000F0A780A4F10104D5F1200E0DDB02FAD0
:101790000EFC22FA05F2801841F1000103FA0EF264
:1017A000801843FA05F359410EE0A5F120050EF12A
:1017B000200E012A03FA0EFC28BF4CF0020C43FA5B
:1017C00005F3C01851EBE37101F0004507D54FF068
:1017D000000EDCF1000C7EEB00006EEB0101B1F5B8
:1017E000801F1BD3B1F5001F0CD349085FEA3000FE
:1017F0004FEA3C0C04F101044FEA445212F5800F09
:1018000080F09A80BCF1004F08BF5FEA500C50F1A5
:10181000000041EB045141EA050130BD5FEA4C0C88
:10182000404141EB010111F4801FA4F10104E9D111
:1018300091F0000F04BF01460020B1FA81F308BF08
:101840002033A3F10B03B3F120020CDA0C3208DDD4
:1018500002F1140CC2F10C0201FA0CF021FA02F1AF
:101860000CE002F11402D8BFC2F1200C01FA02F11F
:1018700020FA0CFCDCBF41EA0C019040E41AA2BF44
:1018800001EB0451294330BD6FEA04041F3C1CDA0C
:101890000C340EDC04F11404C4F1200220FA04F02C
:1018A00001FA02F340EA030021FA04F345EA0301D6
:1018B00030BDC4F10C04C4F1200220FA02F001FA98
:1018C00004F340EA0300294630BD21FA04F029461A
:1018D00030BD94F0000F83F4801306BF81F48011B3
:1018E0000134013D4EE77FEA645C18BF7FEA655C26
:1018F00029D094EA050F08BF90EA020F05D054EAF8
:10190000000C04BF1946104630BD91EA030F1EBFFC
:101910000021002030BD5FEA545C05D14000494100
:1019200028BF41F0004130BD14F580043CBF01F5F3
:10193000801130BD01F0004545F0FE4141F47001D9
:101940004FF0000030BD7FEA645C1ABF19461046B4
:101950007FEA655C1CBF0B46024650EA013406BFB5
:1019600052EA033591EA030F41F4002130BD00BF74
:1019700090F0000F04BF0021704730B54FF4806431
:1019800004F132044FF000054FF0000150E700BFB2
:1019900090F0000F04BF0021704730B54FF4806411
:1019A00004F1320410F0004548BF40424FF00001FE
:1019B0003EE700BF42004FEAE2014FEA31014FEA41
:1019C00002701FBF12F07F4393F07F4F81F0605190
:1019D000704792F0000F14BF93F07F4F704730B5FF
:1019E0004FF4607401F0004521F0004120E700BF92
:1019F00050EA010208BF704730B54FF000050AE019
:101A000050EA010208BF704730B511F0004502D519
:101A1000404261EB41014FF4806404F132045FEA1B
:101A2000915C3FF4DCAE4FF003025FEADC0C18BFC0
:101A300003325FEADC0C18BF033202EBDC02C2F1B6
:101A4000200300FA03FC20FA02F001FA03FE40EA48
:101A50000E0021FA02F11444C1E600BF70B54FF048
:101A6000FF0C4CF4E06C1CEA11541DBF1CEA13552A
:101A700094EA0C0F95EA0C0F00F0DEF82C4481EA92
:101A8000030621EA4C5123EA4C5350EA013518BFB2
:101A900052EA033541F4801143F4801338D0A0FB9F
:101AA00002CE4FF00005E1FB02E506F00042E0FB4C
:101AB00003E54FF00006E1FB03569CF0000F18BF52
:101AC0004EF0010EA4F1FF04B6F5007F64F54074FA
:101AD00004D25FEA4E0E6D4146EB060642EAC6218D
:101AE00041EA55514FEAC52040EA5E504FEACE2EFA
:101AF000B4F1FD0C88BFBCF5E06F1ED8BEF1004FFD
:101B000008BF5FEA500E50F1000041EB045170BD78
:101B100006F0004646EA010140EA020081EA0301BC
:101B2000B4EB5C04C2BFD4EB0C0541EA045170BDB8
:101B300041F480114FF0000E013C00F3AB8014F132
:101B4000360FDEBF002001F0004170BDC4F100047B
:101B5000203C35DA0C341BDC04F11404C4F12005FC
:101B600000FA05F320FA04F001FA05F240EA020057
:101B700001F0004221F0004110EBD37021FA04F68D
:101B800042EB06015EEA430E08BF20EAD37070BD47
:101B9000C4F10C04C4F1200500FA04F320FA05F0A6
:101BA00001FA04F240EA020001F0004110EBD370A8
:101BB00041F100015EEA430E08BF20EAD37070BD18
:101BC000C4F1200500FA05F24EEA020E20FA04F3F1
:101BD00001FA05F243EA020321FA04F001F00041A0
:101BE00021FA04F220EA020000EBD3705EEA430E11
:101BF00008BF20EAD37070BD94F0000F0FD101F040
:101C00000046400041EB010111F4801F08BF013C78
:101C1000F7D041EA060195F0000F18BF704703F0B6
:101C20000046520043EB030313F4801F08BF013D3D
:101C3000F7D043EA0603704794EA0C0F0CEA1355F9
:101C400018BF95EA0C0F0CD050EA410618BF52EAB3
:101C50004306D1D181EA030101F000414FF00000B9
:101C600070BD50EA410606BF1046194652EA4306C7
:101C700019D094EA0C0F02D150EA013613D195EA3B
:101C80000C0F05D152EA03361CBF104619460AD183
:101C900081EA030101F0004141F0FE4141F470018D
:101CA0004FF0000070BD41F0FE4141F4780170BD7D
:101CB00070B54FF0FF0C4CF4E06C1CEA11541DBFE2
:101CC0001CEA135594EA0C0F95EA0C0F00F0A7F8E4
:101CD000A4EB050481EA030E52EA03354FEA013111
:101CE00000F088804FEA03334FF0805545EA131324
:101CF00043EA12634FEA022245EA111545EA1065EC
:101D00004FEA00260EF000419D4208BF964244F182
:101D1000FD0404F5407402D25B084FEA3202B61AA1
:101D200065EB03055B084FEA32024FF480104FF475
:101D3000002CB6EB020E75EB030E22BFB61A7546E9
:101D400040EA0C005B084FEA3202B6EB020E75EB7C
:101D5000030E22BFB61A754640EA5C005B084FEAE4
:101D60003202B6EB020E75EB030E22BFB61A7546B1
:101D700040EA9C005B084FEA3202B6EB020E75EBBC
:101D8000030E22BFB61A754640EADC0055EA060E7D
:101D900018D04FEA051545EA16754FEA06164FEAC0
:101DA000C30343EA52734FEAC2025FEA1C1CC0D16C
:101DB00011F4801F0BD141EA00014FF000004FF0F9
:101DC000004CB6E711F4801F04BF01430020B4F1BA
:101DD000FD0C88BFBCF5E06F3FF6AFAEB5EB030C72
:101DE00004BFB6EB020C5FEA500C50F1000041EB6F
:101DF000045170BD0EF0004E4EEA113114EB5C043C
:101E0000C2BFD4EB0C0541EA045170BD41F480110E
:101E10004FF0000E013C90E645EA060E8DE60CEA16
:101E2000135594EA0C0F08BF95EA0C0F3FF43BAF33
:101E300094EA0C0F0AD150EA01347FF434AF95EAEA
:101E40000C0F7FF425AF104619462CE795EA0C0FCE
:101E500006D152EA03353FF4FDAE1046194622E79B
:101E600050EA410618BF52EA43067FF4C5AE50EA75
:101E700041047FF40DAF52EA43057FF4EBAE12E765
:101E80004FEA410212F5001215D211D56FF47873A2
:101E9000B3EB625212D94FEAC12343F0004343EA45
:101EA000505311F0004F23FA02F018BF4042704720
:101EB0004FF00000704750EA013005D111F00040AA
:101EC00008BF6FF0004070474FF00000704700BF40
:101ED0004FEA4102B2F1E04324BFB3F5001CDCF14C
:101EE000FE5C0DD901F0004C4FEAC0024CEA507084
:101EF000B2F1004F40EB830008BF20F001007047B3
:101F000011F0804F21D113F13872BCBF01F00040B5
:101F1000704741F480114FEA5252C2F11802C2F1E7
:101F2000200C10FA0CF320FA02F018BF40F0010068
:101F30004FEAC1234FEAD32303FA0CFC40EA0C001A
:101F400023FA02F34FEA4303CCE77FEA625307D157
:101F500050EA01331EBF4FF0FE4040F4400070478E
:101F600001F0004040F0FE4040F40000704700BF28
:101F7000931E222B10D80A2A10B506D000230C4637
:101F8000194400F00FF8204610BD0028F6DA2D2382
:101F90000B7040420123F2E700200870704700BF39
:101FA000FFF7E6BFF0B5DFF878E0164604460F46C7
:101FB000BEE80F008BB06D460FC5BEE80F000FC521
:101FC0009EE80300B31E45F8040B222B297022D88B
:101FD0007D1E2846002200E01A46B4FBF6F10AAB4B
:101FE00006FB114423440C4613F8283C00F8013F3B
:101FF000531C0029F0D1F954BB184AB1197815F8CF
:10200000010F29700134111B8C4203F80109F5DB23
:1020100038460BB0F0BD002038700BB0F0BD00BFEB
:102020009C200000FFF7BEBF202020202020202081
:10203000202020002E0000007969726D696C696BA8
:10204000000000006F6E6C756B0000006265736CC1
:10205000696B00006269726C696B0000796172697A
:102060006D6C696B0000000063657972656B6C696B
:102070006B0000006D6574656C696B0064656C696C
:102080006B000000202020202020202020200000A5
:102090006B757275736C756B0000000030313233F4
:1020A0003435363738396162636465666768696AF2
:1020B0006B6C6D6E6F707172737475767778797AF8
:0420C000000000001C
:0420C400F8B500BFAC
:0420C800F8B500BFA8
:00000001FF
